:100000000C948E000C94B6000C94B6000C94B600C0
:100010000C94B6000C94B6000C94B6000C94B60088
:100020000C94B6000C94B6000C94B6000C94B60078
:100030000C94B6000C94B6000C94B6000C94B60068
:100040000C944B090C94B6000C94DD0B0C940F0C23
:100050000C94B6000C94B6000C94B6000C94B60048
:100060000C942B080C94B6000C94B6000C94B600BB
:100070000C94B6000C94B6000C94B6000C94B60028
:100080000C94B6000C94B6000C94B6000C94B60018
:100090000C94B6000C94B6000C94B6000C94B60008
:1000A0000C94B6000C94B6000C94B6000C94B600F8
:1000B0000C94B6000A0D0E090003020000040508A6
:1000C000000000000000000000000000000000012F
:1000D00002040810204080010204081020010204DC
:1000E00008102040804001020408040404040404B1
:1000F00004040202020202020303030303030202D6
:10010000030505050500000000250028002B002E32
:1001100000000A04A8063F0C2F04FD0611241FBE90
:10012000CFEFD8E0DEBFCDBF11E0A0E0B1E0E0EC62
:10013000F4E202C005900D92AA3CB107D9F723E082
:10014000AAECB1E001C01D92A033B207E1F710E0C4
:10015000CCE8D0E004C02197FE010E94E00FC9382E
:10016000D107C9F70E947F0F0C9453120C94000022
:10017000089588EE91E00C94DD05CF93DF93D62FA0
:10018000C42F69E670E088EE91E00E94E6056D2FCD
:1001900088EE91E00E949D046C2F88EE91E00E9411
:1001A0009D0488EE91E00E946B0681E0DF91CF9183
:1001B0000895FC01862F60E60E94930F9783478184
:1001C00061E0CF010C94BD00FC01862F60E60E9427
:1001D000930F9683468162E0CF010C94BD00FC0131
:1001E000862F64E20E94930F9583458163E0CF01DF
:1001F0000C94BD006770FC016483448167E00C943B
:10020000BD00FC01862F62E30E94930F938343811C
:1002100064E0CF010C94BD00FC01862F63E10E94D5
:10022000930F9283428165E0CF010C94BD00462F6D
:10023000FC01618366E00C94BD00AF92CF92EF9217
:10024000FF920F931F93CF93DF93EC01F42E122FA5
:100250000E9417016F2DCE010E940C01612FCE016B
:100260000E940101602FCE010E94FA006E2DCE0186
:100270000E94EF006C2DCE010E94E4006A2DCE0199
:10028000DF91CF911F910F91FF90EF90CF90AF90A2
:100290000C94D900CF93C62F69E670E088EE91E008
:1002A0000E94E6056C2F88EE91E00E949D0460E0BC
:1002B00088EE91E00E94ED0541E050E069E670E0D3
:1002C00088EE91E00E94680688EE91E00E94D404D6
:1002D000CF91089560E00C944A0161E00E944A01C8
:1002E0008F77089562E00E944A018F77089563E056
:1002F0000E944A018F73089567E00E944A01877047
:10030000089564E00E944A018F73089565E00E9499
:100310004A018F71089566E00C944A01EF92FF92B2
:100320000F931F93CF93DF9300D000D000D0CDB7B1
:10033000DEB77C018B0169EC71E00E94640EC8019C
:100340000E948B01D80111968C93119711966C9194
:1003500070E084E0759567958A95E1F7C7010E9482
:10036000210FF80161816F7070E0C7010E94210FB9
:100370006DE2C7010E940E0FC8010E948601D801DC
:1003800012968C93129712966C9170E094E075958A
:1003900067959A95E1F7C7010E94210FF8016281E4
:1003A0006F7070E0C7010E94210F6DE2C7010E94CB
:1003B0000E0FC8010E948101D80113968C931397E8
:1003C00013966C9170E024E0759567952A95E1F796
:1003D000C7010E94210FF80163816F7070E0C701AF
:1003E0000E94210F60E2C7010E940E0FC8010E9407
:1003F0007701D80115968C93159715966C9170E03E
:1004000034E0759567953A95E1F7C7010E94210F91
:10041000F80165816F7070E0C7010E94210F6AE3E7
:10042000C7010E940E0FC8010E947201D8011696E2
:100430008C93169716966C9170E044E075956795CD
:100440004A95E1F7C7010E94210FF80166816F709C
:1004500070E0C7010E94210F6AE3C7010E940E0FDE
:10046000C8010E946D01D80117968C9317971796B3
:100470006C9170E054E0759567955A95E1F7C70166
:100480000E94210FF80167816F7070E0C7010E9420
:10049000210F6EE2C7010E940E0FC8010E946A017F
:1004A000D80118968C93189718966C9170E0E4E038
:1004B00075956795EA95E1F7C7010E94210FF8014C
:1004C00060856F7070E0C7010E94210F60E2C70174
:1004D0000E940E0F69EC71E0CE0101960E94640E3D
:1004E000C8010E947C01D80114968C93149714962D
:1004F000EC91E150E73090F4F0E0EF57FD4F0C94B1
:10050000E00F8802A602A902AC02AF02B202B50255
:1005100061E271E0CE0101960E94CC0EBE016F5FD8
:100520007F4FC7010E94070FCE0101960E94F50D73
:10053000C70126960FB6F894DEBF0FBECDBFDF9180
:10054000CF911F910F91FF90EF90089565E271E0B8
:10055000E1CF69E271E0DECF6DE271E0DBCF61E314
:1005600071E0D8CF65E371E0D5CF69E371E0D2CF18
:100570008AB185708AB908958BB190E289278BB9C9
:1005800008951F93CF93DF93C8E2D0E010E28BB1C0
:1005900081278BB962E370E080E090E00E94C60999
:1005A0002197A9F7DF91CF911F9108958EE4809351
:1005B0007C0062E070E080E090E00E94C6098091DB
:1005C0007A00806480937A0080917A0086FDFCCF67
:1005D0008091780020917900322F282F032E000C73
:1005E000440B550B64EB7BE281E190E00E94C10F6C
:1005F000CA01B9010895C0E0C093660062E370E0EB
:1006000080E090E00E94C60963E571E08FE892E027
:100610000E94B60C2AE030E040E052EC61E070E06D
:100620008FE892E00E943E0D69E571E08FE892E06C
:100630000E94B60C40E150E06C2F8FE892E00E94DF
:100640009A0DCF5FD9CF88ED91E00E94B90086E77F
:100650008093660026E040E052EC61E070E08FE8B5
:1006600092E00E948B0B0E94B8020E94FB02AF92A4
:10067000CF92EF920F9330E020E04BE150E066E044
:1006800071E082ED91E00E94510F80910601833765
:1006900009F0B6C080910701853609F0B1C080919C
:1006A0000801843709F0ACC0809109018F3509F049
:1006B000A7C080910A01823509F0A2C080910B0188
:1006C000843509F09DC080910C01833409F098C0F5
:1006D00067E671E08FE892E00E94DB0C80910D01EB
:1006E0008093D10160910E016093D00140910F0180
:1006F0004093CF01209110012093CE010091110170
:100700000093CD01E0901201E092CC01C090130162
:10071000C092CB01A0901401A092CA0188ED91E093
:100720000E941D0140E150E06091D1018FE892E00C
:100730000E94930D40E150E06091D0018FE892E07B
:100740000E94930D6EE971E08FE892E00E94B60C72
:1007500040E150E06091CF018FE892E00E94930D5C
:100760006EE971E08FE892E00E94B60C40E150E043
:100770006091CE018FE892E00E94930D6EE971E0E6
:100780008FE892E00E94B60C40E150E06091CD010C
:100790008FE892E00E94930D6EE971E08FE892E09D
:1007A0000E94B60C40E150E06091CC018FE892E0ED
:1007B0000E94930D6EE971E08FE892E00E94B60C02
:1007C00040E150E06091CB018FE892E00E94930DF0
:1007D0006EE971E08FE892E00E94B60C40E150E0D3
:1007E0006091CA018FE892E00E949A0D69E771E07A
:1007F0008FE892E00F91EF90CF90AF900C94B60CF1
:1008000066E871E08FE892E00F91EF90CF90AF90A3
:100810000C94DB0C88ED91E00E94B80069EC71E06B
:1008200082ED91E00E94640EE6E0F1E08781809322
:10083000D10180858093D00181858093CF0182850D
:100840008093CE0183858093CD0184858093CC01F4
:1008500085858093CB0186858093CA01089582EDBA
:1008600091E00C94F50DCF93DF9300D000D000D031
:10087000CDB7DEB78FE892E00E94AB0A892BE1F09A
:100880006FE872E0CE0101960E94DA0DBE016F5F43
:100890007F4F82ED91E00E94C00ECE0101960E9432
:1008A000F50D0E94370362ED71E08FE892E00E943F
:1008B000C90C0E94C102DECF68EE73E080E090E0D8
:1008C0000E94C60966E971E08FE892E00E94B60CCA
:1008D0000E94D602AB01BC012AE030E08FE892E032
:1008E0000E943E0D6BE971E08FE892E00E94B60C29
:1008F0000E94BC0260EA71E08FE892E00E94B60CB0
:1009000068ED71E0CE0101960E948E01BE016F5F1D
:100910007F4F8FE892E00E94C90CCE0101960E94A1
:10092000F50D26960FB6F894DEBF0FBECDBFDF9152
:10093000CF91089590E080E00895CF93DF931F92C8
:10094000CDB7DEB7FC01698387898823F9F0268952
:10095000848595852817190654F081E090E09383EB
:10096000828390E080E00F90DF91CF91089589819C
:10097000A58923893489A20FB32FB11D8C93858952
:100980008F5F858B868B81E090E0EDCF00A4F1A591
:10099000E02D61E0CE0101960995F5CFFC0181893A
:1009A0009089891B990B0895FC01908981892FEF0B
:1009B0003FEF981740F4A685B785A90FB11D2C917C
:1009C00030E09F5F908BC9010895DC015096EC9157
:1009D000509751968C915197E81748F41E968D9137
:1009E0009C91E80FF92FF11D808190E008958FEF21
:1009F0009FEF08950895CF92DF92EF92FF920F93A9
:100A00001F93CF93DF938C01CB017A01D8015796C6
:100A10002C915797222389F0EB016B01C40ED51E50
:100A2000CC15DD0579F06991D801ED91FC9101902B
:100A3000F081E02DC8010995F3CF9896ED91FC91D6
:100A4000642F0995C701DF91CF911F910F91FF90FE
:100A5000EF90DF90CF9008952F923F924F925F9248
:100A60006F927F928F929F92AF92BF92CF92DF92BE
:100A7000EF92FF920F931F93CF93DF93CDB7DEB723
:100A800060970FB6F894DEBF0FBECDBF3C012B01BF
:100A90005A8349833C832B838DA19EA19E838D83A2
:100AA000EFA1F8A5F887EF8389A59AA59A8789878A
:100AB000EBA5FCA5FC87EB872DA43EA48FA598A9E8
:100AC0009E878D87E9A9FAA9F88BEF87F301138236
:100AD000128288EE93E0A0E0B0E084839583A68341
:100AE000B78387EA91E09183808375876487CB0120
:100AF0000E948E0FF30197878687108A118A128AC7
:100B0000C2010E948E0FF301948B838B158A168A83
:100B1000178A89819A81958F848F8B819C81978F89
:100B2000868F11A300A3F3A2E2A2D5A2C4A2B7A20A
:100B3000A6A291A680A68D819E8193A782A78F8170
:100B4000988595A784A789859A8597A786A7C101C7
:100B5000EB85FC8509958F859889ED85FE856096E6
:100B60000FB6F894DEBF0FBECDBFDF91CF911F91BE
:100B70000F91FF90EF90DF90CF90BF90AF909F903C
:100B80008F907F906F905F904F903F902F9009943F
:100B9000CF93DF93EC0187EA91E09983888361E04A
:100BA00070E08E859F850E94900F61E070E08B89D8
:100BB0009C89DF91CF910C94900FFC01108A118ACF
:100BC000158A168A048CF58DE02D0994FC0181E0CC
:100BD000878B628B158A168A08950F93CF93DF93C4
:100BE000EC018B899C89EEA1FFA1062F21E04E89A3
:100BF000BC018A8909951D8A1E8A1F8ADF91CF91BF
:100C00000F9108958F929F92AF92BF92CF92DF92F1
:100C1000EF92FF920F931F93CF93DF93EC01D62EA9
:100C2000F42E48015901EE2029F181E08F8B6A8B67
:100C30001D8A1E8A1E2D143008F013E01150B0F0EA
:100C400028E0129FC0011124A501940104C056950B
:100C50004795379527958A95D2F7B901E881F981AB
:100C60000190F081E02DCE010995E8CF60E0CE0142
:100C70000E94ED058C859D85F816190611F00CF083
:100C8000F82E6E857F85ECA1FDA12C2D4F2D8D2D8D
:100C90000995188A898BDF91CF911F910F91FF9051
:100CA000EF90DF90CF90BF90AF909F908F9008957E
:100CB000CF92EF920F931F93C22EE12C00E010E031
:100CC00098010E9402061F910F91EF90CF90089516
:100CD00021E00C94580661E00C94ED05FC01CA017A
:100CE000228D338D232BD9F0308921893217B8F02A
:100CF00020E0422F50E0481759075CF4DB01A40FB5
:100D0000B51F3C91A685B785A40FB51F3C932F5FF7
:100D1000F0CF108A818B028CF38DE02D0994089519
:100D2000AB01BC0188EE91E00C946E06DC01589694
:100D3000ED91FC915997309731F055961C9255974B
:100D400056961C920994089588EE91E00C949606AC
:100D50008F929F92AF92BF92CF92DF92EF92FF92CB
:100D60000F931F9384EA96E09F938F938EE098E011
:100D70009F938F9380E996E09F938F9389E098E00B
:100D80009F938F9385E298E09F938F938BE198E0F8
:100D90009F938F9383E198E09F938F9382EE882EA9
:100DA00087E0982E9BE8A92E97E0B92E23E4C22E67
:100DB00027E0D22E30E3E32E37E0F32E0CE217E0EB
:100DC0002FE137E041E057E060E270E088EE91E02B
:100DD0000E942C058DB79EB70E960FB6F8949EBF55
:100DE0000FBE8DBF1F910F91FF90EF90DF90CF90BE
:100DF000BF90AF909F908F90089588EE91E00C94F3
:100E0000C8051092850281E08093830210928202CD
:100E100061E082E10E947D0A61E083E10E947D0A37
:100E2000E9EBF0E080818E7F808380818D7F8083FD
:100E30008DEF8093B80085E48093BC000895ECEBBF
:100E4000F0E080818A7B808360E082E10E947D0AFD
:100E500060E083E10C947D0A880F8093BA000895C6
:100E60009B01AC0160E472E48FE090E00E949F0F70
:100E700020513109410951095695479537952795D4
:100E80002093B8000895413208F043C09091850244
:100E90009111FCCF91E090938502209383022FEF74
:100EA0002093180210925D02240F20935C0290930D
:100EB000840290918402880F892B80938402809110
:100EC0008202813009F5109282028091840280931F
:100ED000BB008091BC0083FDF8CF85EC8093BC0003
:100EE000809185028130E1F380915D02841710F4D6
:100EF00040915D02AEE5B2E0962FFB018E2F891B7B
:100F0000841720F0842F089585EEE8CF8D9181938A
:100F1000F5CF40E0F7CF0F93413208F04BC09091EE
:100F200085029111FCCF92E0909385020093830299
:100F30009FEF9093180210925D0240935C02362F4F
:100F4000AEE5B2E0FB019E2F931B941770F1109257
:100F5000840290918402880F892B8093840280916F
:100F60008202813029F5109282028091840280935E
:100F7000BB008091BC0083FDF8CF85EC8093BC0062
:100F8000222321F0809185028230D1F380911802D2
:100F90008F3F91F080911802803281F08091180289
:100FA000803371F084E00F91089591919D93CBCFA0
:100FB00085EEE4CF81E0F7CF80E0F5CF82E0F3CF9C
:100FC00083E0F1CF20913A02260F3327331F2132DD
:100FD0003105ECF420918502FC0190E080E02430A2
:100FE00069F082E00895A0913A022191AC01445C3D
:100FF0005D4FA40FB52FB11D2C930196861798F362
:1010000080913A02680F60933A0280E0089581E08F
:10101000089590937F0280937E02089590938102B9
:10102000809380020895882321F085EC8093BC0092
:10103000089585E8FBCF85ED8093BC008091BC00CE
:1010400084FDFCCF10928502089585EC8093BC004E
:101050001092850208951F920F920FB60F921124DD
:101060002F933F934F935F936F937F938F939F93B0
:10107000AF93BF93EF93FF938091B900887F803641
:1010800009F44CC008F03FC0883209F4A8C018F534
:10109000803109F49CC0B8F4882309F4F9C0883081
:1010A00009F495C0FF91EF91BF91AF919F918F91FE
:1010B0007F916F915F914F913F912F910F900FBE54
:1010C0000F901F901895883109F489C0803251F72C
:1010D0008093180215C0803409F49EC048F4803310
:1010E000B9F38833F9F6809318020E942508DACF05
:1010F000803509F485C0883509F496C0883491F6A6
:101100000E941B08CFCF883909F48CC038F5883786
:1011100029F050F4883611F0803721F683E080936F
:1011200085021092190257C0883809F47BC08039B3
:1011300019F0803809F0B6CF80911902803208F09A
:1011400071C0E091190281E08E0F809319028091A5
:10115000BB00F0E0E65EFD4F80833DC0803B39F090
:10116000E0F4803A09F479C0883A09F09BCF84E032
:101170008093850210923B0210923A02E091800225
:10118000F0918102099580913A0281110FC081E0AE
:1011900080933A0210923C0209C0803C09F476C068
:1011A000883C09F473C0883B09F07CCFE0913B0296
:1011B00081E08E0F80933B02F0E0E45CFD4F808184
:1011C0008093BB0090913B0280913A0229C08091AC
:1011D00084028093BB0085EC8093BC0063CF909128
:1011E0005D0280915C02981758F5E0915D0281E004
:1011F0008E0F80935D02F0E0E25AFD4F8081E9CFCF
:10120000E0915D0281E08E0F80935D028091BB00D2
:10121000F0E0E25AFD4F808390915D0280915C0284
:101220009817C8F285E8D8CFE0915D0281E08E0F73
:1012300080935D028091BB00F0E0E25AFD4F808315
:101240008091830281115CCF81E08093820284EAE5
:101250008093BC001092850225CF0E9425088091C2
:101260001902803230F4E0911902F0E0E65EFD4FA1
:1012700010826091190270E0E0917E02F0917F028D
:101280008AE192E00995109219020CCF85ECE0CF2B
:101290001092180235CF1F920F920FB60F921124A1
:1012A0002F933F938F939F93AF93BF9380918B0224
:1012B00090918C02A0918D02B0918E0230918A02A1
:1012C00020E3230F2D3768F123EB230F4196A11D57
:1012D000B11D20938A0280938B0290938C02A0937D
:1012E0008D02B0938E028091860290918702A09128
:1012F0008802B09189020196A11DB11D80938602DA
:1013000090938702A0938802B0938902BF91AF9116
:101310009F918F913F912F910F900FBE0F901F9033
:1013200018954096A11DB11DD4CF2FB7F8946091A8
:101330008B0270918C0280918D0290918E022FBF52
:1013400008953FB7F8948091860290918702A0910A
:101350008802B091890226B5A89B05C02F3F19F0DD
:101360000196A11DB11D3FBFBA2FA92F982F882725
:10137000BC01CD01620F711D811D911D46E0660FFC
:10138000771F881F991F4A95D1F708958F929F92D2
:10139000AF92BF92CF92DF92EF92FF926B017C01EE
:1013A0000E94A1094B015C01C114D104E104F104C4
:1013B000E9F00E94920F0E94A109681979098A092F
:1013C0009B09683E73408105910570F321E0C21AC4
:1013D000D108E108F10888EE880E83E0981EA11C70
:1013E000B11CC114D104E104F10429F7FF90EF907E
:1013F000DF90CF90BF90AF909F908F90089578949A
:1014000084B5836084BD85B5836085BDEEE6F0E07C
:1014100080818160808382E080938100E0E8F0E059
:10142000808181608083E1EBF0E080818460808353
:10143000E0EBF0E0808181608083E1E9F0E0808191
:1014400083608083E0E9F0E0808181608083E1EA6D
:10145000F0E0808183608083E0EAF0E08081816059
:10146000808383E880937A001092C10008958250AF
:101470008D3008F03EC0E82FF0E0EF5BF54F0C94A4
:10148000E00F760A7A0A4E0A540A790A790A580A4B
:101490005E0A620A680A790A6C0A720A8091800000
:1014A0008F77809380000895809180008F7DF9CFA1
:1014B0008091B0008F778093B00008958091B00044
:1014C0008F7DF9CF809190008F7780939000089561
:1014D000809190008F7DF9CF8091A0008F778093CD
:1014E000A00008958091A0008F7DF9CF84B58F77FB
:1014F00084BD089584B58F7DFBCF1F93CF93DF9379
:10150000282F30E0F901EC54FF4F8491F901E153A9
:10151000FF4FD491F901E651FF4FC491CC23A9F0BC
:10152000162F81110E94370AEC2FF0E0EE0FFF1FFB
:10153000EB5FFE4FA591B4918FB7F894EC91111128
:1015400008C0D095DE23DC938FBFDF91CF911F9130
:101550000895DE2BF8CFFC01918D228D892F90E02C
:10156000805C9F4F821B91098F7399270895FC011E
:10157000918D828D981731F0828DE80FF11D858D48
:1015800090E008958FEF9FEF0895FC01918D828D7B
:10159000981761F0A28DAE0FBF2FB11D5D968C9193
:1015A000928D9F5F9F73928F90E008958FEF9FEFD2
:1015B0000895FC01538D448D252F30E0842F90E059
:1015C000821B930B541710F0CF960895019708953E
:1015D00085E39CE0892B49F080E090E0892B29F09D
:1015E0000E94350C81110E94000080E090E0892B60
:1015F00049F080E090E0892B29F00E9400008111E1
:101600000C9400000895FC01A48DA80FB92FB11D02
:10161000A35ABF4F2C91848D90E001968F73992728
:10162000848FA689B7892C93A089B1898C91806415
:101630008C93938D848D981306C00288F389E02DD6
:1016400080818F7D80830895CF93DF93EC01888D17
:101650008823B9F0AA89BB89E889F9898C9185FD2D
:1016600003C0808186FD0DC00FB607FCF7CF8C91BB
:1016700085FFF2CF808185FFEDCFCE010E94030B65
:10168000E9CFDF91CF910895EF92FF920F931F93CF
:10169000CF93DF93EC0181E0888F9B8D8C8D981325
:1016A00016C0E889F989808185FF11C0EE89FF891C
:1016B0006083E889F98980818064808381E090E09B
:1016C000DF91CF911F910F91FF90EF900895F62E2B
:1016D0000B8D10E00F5F1F4F0F731127E02E8C8DC5
:1016E0008E110CC00FB607FCFACFE889F98980810A
:1016F00085FFF5CFCE010E94030BF1CFEB8DEC0FF0
:10170000FD2FF11DE35AFF4FF0820B8FEA89FB8911
:1017100080818062D2CFCF92DF92EF92FF921F93AF
:10172000CF93DF93EC016A017B01122F60E970ED2A
:1017300083E090E0A70196010E949F0F215031099C
:10174000410951095695479537952795E889F989B3
:1017500082E08083211580E1380798F0E889F989D3
:10176000108268E478EE81E090E0A70196010E9483
:101770009F0F2150310941095109569547953795D9
:101780002795EC85FD853083EE85FF852083188EB7
:10179000EC89FD891083EA89FB89808188698083CF
:1017A000EA89FB8980818F7D8083DF91CF911F91B2
:1017B000FF90EF90DF90CF9008951F920F920FB699
:1017C0000F9211242F938F939F93EF93FF93E091A8
:1017D0009F02F091A0028081E091A502F091A60203
:1017E00082FD1BC090818091A8028F5F8F73209132
:1017F000A902821741F0E091A802F0E0E157FD4F05
:10180000958F8093A802FF91EF919F918F912F91D7
:101810000F900FBE0F901F9018958081F4CF1F92EC
:101820000F920FB60F9211242F933F934F935F9314
:101830006F937F938F939F93AF93BF93EF93FF9398
:101840008FE892E00E94030BFF91EF91BF91AF915F
:101850009F918F917F916F915F914F913F912F91C8
:101860000F900FBE0F901F9018958FE892E00E9486
:10187000AB0A21E0892B09F420E0822F0895EFE8DC
:10188000F2E01382128288EE93E0A0E0B0E084835D
:101890009583A683B78389EB91E09183808385EC60
:1018A00090E09587848784EC90E09787868780EC2A
:1018B00090E0918B808B81EC90E0938B828B82EC1B
:1018C00090E0958B848B86EC90E0978B868B118EC5
:1018D000128E138E148E0895AF92BF92CF92DF9224
:1018E000EF92FF920F931F93CF93DF936C017B01D5
:1018F0008B01040F151FEB015E01AE18BF08C01766
:10190000D10759F06991D601ED91FC910190F081D8
:10191000E02DC6010995892B79F7C501DF91CF919B
:101920001F910F91FF90EF90DF90CF90BF90AF90FD
:101930000895FB0101900020E9F73197AF01461BA4
:10194000570BDC01ED91FC910280F381E02D0994AD
:10195000DB0114964D915C9115976D917C91DC01A2
:10196000ED91FC910280F381E02D099461157105E0
:1019700011F00C94990C90E080E00895DC01ED9159
:10198000FC910190F081E02D099467EC71E00C94DA
:10199000990C0F931F93CF93DF93EC010E94A80C37
:1019A0008C01CE010E94C50C800F911FDF91CF9159
:1019B0001F910F9108950F931F93CF93DF938C0185
:1019C000D0E0C0E06115710519F00E94990CEC019E
:1019D000C8010E94C50C8C0F9D1FDF91CF911F91F4
:1019E0000F9108958F929F92AF92BF92EF92FF92C4
:1019F0000F931F93CF93DF93CDB7DEB7A1970FB6A9
:101A0000F894DEBF0FBECDBF7C01FA01CB0119A255
:101A1000223008F42AE08E010F5D1F4F822E912C98
:101A2000B12CA12CBF01A50194010E949F0FF901C7
:101A3000CA016A300CF5605DD8016E938D01232BCD
:101A4000242B252B79F790E080E0109721F0BD0141
:101A5000C7010E94990CA1960FB6F894DEBF0FBE85
:101A6000CDBFDF91CF911F910F91FF90EF90BF906D
:101A7000AF909F908F900895695CDECFCF92DF92F8
:101A8000EF92FF920F931F93CF93DF9321153105B0
:101A900081F4DC01ED91FC910190F081E02D642F47
:101AA000DF91CF911F910F91FF90EF90DF90CF903A
:101AB00009942A30310501F52AE077FF1DC06A013B
:101AC0007B01EC016DE20E94BE0C8C01442755277E
:101AD000BA014C195D096E097F092AE0CE010E9406
:101AE000F20C800F911FDF91CF911F910F91FF900A
:101AF000EF90DF90CF900895DF91CF911F910F91DC
:101B0000FF90EF90DF90CF900C94F20C21153105EF
:101B100041F4DC01ED91FC910190F081E02D642F06
:101B200009940C94F20C9A01462F50E070E060E0AA
:101B30000C94860D0F931F93CF93DF93EC010E94BB
:101B4000930D8C01CE010E94C50C800F911FDF9177
:101B5000CF911F910F9108950F931F93CF93DF9310
:101B6000EC010E949509688779878A879B87E881BD
:101B7000F9810284F385E02DCE01099597FF15C008
:101B80000E949509088519852A853B85601B710B84
:101B9000820B930B0C811D812E813F816017710791
:101BA0008207930720F38FEF9FEFDF91CF911F9173
:101BB0000F9108950F931F93CF93DF93EC018B0147
:101BC00069EC71E00E94640EC8010E94AC0D97FDA3
:101BD00005C0682FCE010E940E0FF6CFCE01DF9117
:101BE000CF911F910F9108950895FC0180819181FB
:101BF0000C948210CF93DF93EC0188819981009738
:101C000011F00E948210198218821D821C821B8290
:101C10001A82DF91CF9108950F931F93CF93DF9393
:101C2000EC018B016F5F7F4F888199810E940B11BE
:101C3000009751F0998388831B830A8381E0DF91A9
:101C4000CF911F910F91089580E0F9CFCF93DF934B
:101C5000EC0188819981892B49F08A819B818617C3
:101C6000970720F081E0DF91CF910895CE010E9487
:101C70000C0E8823C1F38C819D81892B99F7E88113
:101C8000F9811082EFCFEF92FF920F931F93CF93C2
:101C9000DF93EC017B018A01BA010E94260E8111BB
:101CA0000BC0CE010E94FA0DCE01DF91CF911F91A2
:101CB0000F91FF90EF9008951D830C83B7018881E9
:101CC00099810E94D111F0CFFC0111821082138200
:101CD0001282158214826115710551F0FB01019089
:101CE0000020E9F73197AF01461B570B0C94430EC8
:101CF0000895FB0101900020E9F73197AF01461BE1
:101D0000570B0C94430E0F931F93CF93DF938C01CB
:101D1000EB01FC0180819181009701F1688179815B
:101D200061157105C9F024EF3DE0232BA9F0428134
:101D300053812C813D814217530770F00E94D111CD
:101D40008C819D81F801958384831D821C82DF91A3
:101D5000CF911F910F9108950E94821088819981DF
:101D6000F801918380838A819B81938382838C8114
:101D70009D8195838483198218821B821A82E5CF04
:101D8000CF93DF93EC018617970711F00E94830E23
:101D9000CE01DF91CF910895CF93DF93EC016115D0
:101DA000710531F00E94790ECE01DF91CF91089537
:101DB0000E94FA0DF9CFEF92FF920F931F93CF93EA
:101DC000DF936115710541F480E0DF91CF911F91A0
:101DD0000F91FF90EF90089541155105B1F07B01EF
:101DE000EC010C811D81040F151FB8010E94260E05
:101DF000882351F3288139818C819D81B701820F1D
:101E0000931F0E94D1111D830C8381E0DECFFB0163
:101E100044815581608171810C94DB0ECF93DF93F7
:101E200000D0CDB7DEB769831A8241E050E0BE0131
:101E30006F5F7F4F0E94DB0E0F900F90DF91CF916D
:101E40000895EF92FF920F931F93CF93DF93CDB737
:101E5000DEB728970FB6F894DEBF0FBECDBF7C016A
:101E6000CB014AE08E010F5F1F4FB8010E94E711BE
:101E7000F80101900020E9F73197AF01401B510BA9
:101E8000B801C7010E94DB0E28960FB6F894DEBF9A
:101E90000FBECDBFDF91CF911F910F91FF90EF90BB
:101EA00008950F931F93CF93DF934115510559F078
:101EB0006115710541F0FC0104811581201731077E
:101EC00038F0FB011082DF91CF911F910F9108959F
:101ED00041505109021B130B4017510708F48A01A6
:101EE000EB01FC0160817181620F731FA801CE01BB
:101EF0000E94D811C00FD11F1882E5CF08950E940B
:101F0000FF090E947E0F0E942303C8EEDAE00E94C0
:101F100033042097E1F30E94E80AF9CF0C94E60F0E
:101F20000C9482100895991B79E004C0991F9617AC
:101F300008F0961B881F7A95C9F780950895A1E24D
:101F40001A2EAA1BBB1BFD010DC0AA1FBB1FEE1F33
:101F5000FF1FA217B307E407F50720F0A21BB30B7E
:101F6000E40BF50B661F771F881F991F1A9469F7FA
:101F700060957095809590959B01AC01BD01CF0156
:101F80000895052E97FB1EF400940E94D80F57FD6C
:101F900007D00E949F0F07FC03D04EF40C94D80F7B
:101FA00050954095309521953F4F4F4F5F4F089585
:101FB00090958095709561957F4F8F4F9F4F0895B5
:101FC000EE0FFF1F0590F491E02D09940F931F93DE
:101FD000CF93DF938230910510F482E090E0E0919E
:101FE0002E03F0912F0330E020E0B0E0A0E0309726
:101FF00099F42115310509F44AC0281B390B243006
:102000003105D8F58A819B816115710589F1FB0144
:1020100093838283FE0111C040815181028113812B
:1020200048175907E0F04817590799F4109761F0DD
:1020300012960C93129713961C933296CF01DF9150
:10204000CF911F910F91089500932E0310932F03AA
:10205000F4CF2115310551F04217530738F0A9018B
:10206000DB019A01BD01DF01F801C1CFEF01F9CF1A
:1020700090932F0380932E03CDCFFE01E20FF31F29
:10208000819391932250310939832883D7CF2091AE
:102090002C0330912D03232B41F420910201309128
:1020A000030130932D0320932C03209100013091E4
:1020B00001012115310541F42DB73EB740910401CE
:1020C00050910501241B350BE0912C03F0912D0359
:1020D000E217F307A0F42E1B3F0B2817390778F0FF
:1020E000AC014E5F5F4F2417350748F04E0F5F1F5E
:1020F00050932D0340932C03819391939FCFF0E055
:10210000E0E09CCFCF93DF930097E9F0FC0132979A
:1021100013821282A0912E03B0912F03ED0130E0C3
:1021200020E01097A1F420813181820F931F20912C
:102130002C0330912D032817390709F061C0F09363
:102140002D03E0932C03DF91CF910895EA01CE1780
:10215000DF07E8F54A815B819E0141155105B1F722
:10216000E901FB83EA8349915991C40FD51FEC170C
:10217000FD0761F4808191810296840F951FE9012A
:1021800099838883828193819B838A83F0E0E0E056
:1021900012968D919C9113970097B9F52D913C91D2
:1021A0001197CD010296820F931F20912C0330913D
:1021B0002D032817390739F6309751F510922F0360
:1021C00010922E03B0932D03A0932C03BCCFD38386
:1021D000C28340815181840F951FC817D90761F4CC
:1021E0004E5F5F4F88819981480F591F518340830B
:1021F0008A819B81938382832115310509F0B0CFB9
:10220000F0932F03E0932E039ECFFD01DC01C0CF9E
:1022100013821282D7CFB0E0A0E0E1E1F1E10C94AB
:102220001E128C01009751F4CB010E94E60F8C0125
:10223000C801CDB7DEB7E0E10C943A12FC01E60F1D
:10224000F71F9C0122503109E217F30708F49DC0E3
:10225000D901CD91DC911197C617D70798F0C530F9
:10226000D10530F3CE0104978617970708F3C61BF4
:10227000D70B2297C193D1936D937C93CF010E948A
:102280008210D6CF5B01AC1ABD0A4C018C0E9D1E8C
:10229000A0912E03B0912F03512C412CF12CE12C55
:1022A000109731F580912C0390912D038815990595
:1022B00009F05CC04616570608F058C0809100012E
:1022C00090910101009741F48DB79EB740910401B0
:1022D00050910501841B950BE817F90708F055C0CC
:1022E000F0932D03E0932C03F90171836083A0CF59
:1022F0008D919C91119712966C90129713967C90E9
:102300001397A815B90559F56C0142E0C40ED11C0C
:10231000CA14DB0420F1AC014A195B09DA011296F8
:10232000159780F06282738251834083D9016D9347
:102330007C93E114F10471F0D7011396FC93EE93B2
:10234000129776CF22968C0F9D1FF901918380837F
:10235000F301EFCFF0932F03E0932E0369CF4816DC
:10236000590608F42C017D01D3019ACFCB010E94BC
:10237000E60F7C01009749F0AE01B8010E94C81138
:10238000C8010E948210870153CF10E000E050CFB7
:10239000FB01DC0102C001900D9241505040D8F782
:1023A0000895FB01DC0101900D920020E1F70895F2
:1023B000FB01DC014150504048F001900D9200209B
:1023C000C9F701C01D9241505040E0F70895BB2766
:1023D0004A3031F4992322F4BDE2909581959F4FC4
:1023E0000C94F311BB27FB015527AA27880F991FCF
:1023F000AA1FA41710F0A41B83955051B9F7A05D34
:10240000AA3308F0A95DA193009779F7B111B193B0
:102410001192CB010C940C12DC01FC01672F71911D
:102420007723E1F7329704C07C916D9370836291BA
:10243000AE17BF07C8F308952F923F924F925F9255
:102440006F927F928F929F92AF92BF92CF92DF92C4
:10245000EF92FF920F931F93CF93DF93CDB7DEB729
:10246000CA1BDB0B0FB6F894DEBF0FBECDBF0994BD
:102470002A88398848885F846E847D848C849B8414
:10248000AA84B984C884DF80EE80FD800C811B8122
:10249000AA81B981CE0FD11D0FB6F894DEBF0FBE51
:1024A000CDBFED01089510E0CCE8D0E004C0FE01FE
:1024B0000E94E00F2196CE38D107C9F7F894FFCFDC
:1024C00000003003800078787878787878787878A9
:1024D0007878787878787878787878787878780AEA
:1024E000004D6F6E00547565005765640054687543
:1024F00000467269005361740053756E000A64757A
:102500006D7020414D313830352049440A00524524
:10251000472000626175643D002C204F53434341C6
:102520004C203D203078007365745F5254435F70D7
:10253000726F63656475726500525443206973203D
:102540007365742E0A00756E6B6E6F776E20636F05
:102550006D6D616E64005643433D006D562C200046
:10256000323000000000009D04FB049A04FA04CEFF
:1025700004D404E50400000000440B6C0CD90A24C8
:0A2580000BAB0AC50AB70A0D0A00EA
:00000001FF
