:100000000C9490000C94B8000C94B8000C94B800B8
:100010000C94B8000C94B8000C94B8000C94B80080
:100020000C94B8000C94B8000C94B8000C94B80070
:100030000C94B8000C94B8000C94B8000C94B80060
:100040000C9402020C94B8000C94F5040C9427054F
:100050000C94B8000C94B8000C94B8000C94B80040
:100060000C94B8000C94B8000C94B8000C94B80030
:100070000C94B8000C94B8000C94B8000C94B80020
:100080000C94B8000C94B8000C94B8000C94B80010
:100090000C94B8000C94B8000C94B8000C94B80000
:1000A0000C94B8000C94B8000C94B8000C94B800F0
:1000B0000C94B8000A0D0E090003020000040508A4
:1000C000000000000000000000000000000000012F
:1000D00002040810204080010204081020010204DC
:1000E00008102040804001020408040404040404B1
:1000F00004040202020202020303030303030202D6
:10010000030505050500000000250028002B002E32
:100110000000000000240027002A002D00005705E1
:1001200011241FBECFEFD8E0DEBFCDBF11E0A0E0AD
:10013000B1E0E4E7F4E102C005900D92A238B10706
:10014000D9F722E0A2E8B1E001C01D92A833B207BE
:10015000E1F710E0C0E9D0E004C02197FE010E9461
:100160008D07CF38D107C9F70E943C070C94380A95
:100170000C9400008EE480937C0062E070E080E0EC
:1001800090E00E947D0280917A00806480937A00E2
:1001900080917A0086FDFCCF8091780020917900D3
:1001A000322F282F032E000C440B550B64EB7BE2FF
:1001B00081E190E00E946E07CA01B901089561E0F3
:1001C00085E00E94590326E040E855E260E070E0D7
:1001D00087E991E00C94A304CF92DF92EF92FF9213
:1001E0000F931F93CF93DF93CDB7DEB72C970FB646
:1001F000F894DEBF0FBECDBF80910A010E94EE02CF
:10020000909387018093860164E670E080E090E03F
:100210000E947D02809108010E94EE029093850168
:100220008093840164E670E080E090E00E947D02AB
:10023000809106010E94EE029093830180938201D7
:100240000E944C02009188011091890120918A013D
:1002500030918B016B017C01C01AD10AE20AF30ACA
:1002600097018601083E13402105310508F4B6C008
:10027000609388017093890180938A0190938B0128
:1002800080918C0190918D01892B09F0B6C081E09D
:1002900090E090938D0180938C0160918C0185E0BA
:1002A0000E9495036DE071E087E991E00E94E4050A
:1002B00060918601709187014AE0CE0107960E9405
:1002C00089066EE371E0CE0101960E946A06BE01C6
:1002D000695F7F4FCE0101960E940E07BC0187E93E
:1002E00091E00E94D205CE0101960E94FB05CE014D
:1002F00007960E94FB0560918401709185014AE098
:10030000CE0107960E9489066AE471E0CE0101964B
:100310000E946A06BE01695F7F4FCE0101960E946E
:100320000E07BC0187E991E00E94D205CE0101963B
:100330000E94FB05CE0107960E94FB056091820199
:10034000709183014AE0CE0107960E94890666E516
:1003500071E0CE0101960E946A06BE01695F7F4F7F
:10036000CE0101960E940E07BC0187E991E00E9430
:10037000D205CE0101960E94FB05CE0107960E9490
:10038000FB050E94BA00AB01BC012AE0CE01079632
:100390000E94B50662E671E0CE0101960E946A06EF
:1003A000BE01695F7F4FCE0101960E940E0769E68C
:1003B00071E00E942107BC0187E991E00E94D2050B
:1003C000CE0101960E94FB05CE0107960E94FB0517
:1003D00068EE73E080E090E00E947D022C960FB6FC
:1003E000F894DEBF0FBECDBFDF91CF911F910F916B
:1003F000FF90EF90DF90CF90089510928D011092B2
:100400008C014BCF1F920F920FB60F9211242F9396
:100410003F938F939F93AF93BF938091930190915C
:100420009401A0919501B09196013091920120E341
:10043000230F2D3768F123EB230F4196A11DB11D2A
:10044000209392018093930190939401A09395013E
:10045000B093960180918E0190918F01A0919001AF
:10046000B09191010196A11DB11D80938E019093D1
:100470008F01A0939001B0939101BF91AF919F9193
:100480008F913F912F910F900FBE0F901F90189555
:100490004096A11DB11DD4CF2FB7F8946091930160
:1004A0007091940180919501909196012FBF0895CC
:1004B0003FB7F89480918E0190918F01A0919001A7
:1004C000B091910126B5A89B05C02F3F19F0019668
:1004D000A11DB11D3FBFBA2FA92F982F8827BC019E
:1004E000CD01620F711D811D911D46E0660F771FC2
:1004F000881F991F4A95D1F708958F929F92AF92C6
:10050000BF92CF92DF92EF92FF926B017C010E942B
:1005100058024B015C01C114D104E104F104E9F07B
:100520000E944B070E945802681979098A099B09A1
:10053000683E73408105910570F321E0C21AD1082D
:10054000E108F10888EE880E83E0981EA11CB11C1A
:10055000C114D104E104F10429F7FF90EF90DF907A
:10056000CF90BF90AF909F908F900895789484B56E
:10057000836084BD85B5836085BDEEE6F0E0808153
:100580008160808382E080938100E0E8F0E08081F8
:1005900081608083E1EBF0E0808184608083E0EB28
:1005A000F0E0808181608083E1E9F0E08081836018
:1005B0008083E0E9F0E0808181608083E1EAF0E01F
:1005C000808183608083E0EAF0E0808181608083C5
:1005D00083E880937A001092C1000895883038F043
:1005E00092EF980F9B30D8F08931D8F08351209149
:1005F0000C0190E4299F900111248770822B809335
:100600007C0080917A00806480937A0080917A00E7
:1006100086FDFCCF80917800909179000895892F14
:10062000E6CF8FEFE4CF82508D3008F03EC0E82F48
:10063000F0E0E35EFC4F0C948D07520356032A034F
:1006400030035503550334033A033E034403550373
:1006500048034E03809180008F7780938000089537
:10066000809180008F7DF9CF8091B0008F7780934B
:10067000B00008958091B0008F7DF9CF80919000F7
:100680008F77809390000895809190008F7DF9CFAF
:100690008091A0008F778093A00008958091A000A2
:1006A0008F7DF9CF84B58F7784BD089584B58F7D14
:1006B000FBCFCF93DF9390E0FC01E153FF4F2491F8
:1006C00086519F4FFC0184918823C9F090E0880FE8
:1006D000991FFC01EF5EFE4FA591B491FC01EB5F09
:1006E000FE4FC591D49161110DC09FB7F8948C91C4
:1006F000209582238C938881282328839FBFDF91B4
:10070000CF910895623051F49FB7F8943C91822FB5
:10071000809583238C93E8812E2BEFCF8FB7F894AD
:10072000EC912E2B2C938FBFEACF1F93CF93DF93A7
:10073000282F30E0F901EC54FF4F8491F901E15387
:10074000FF4FD491F901E651FF4FC491CC23A9F09A
:10075000162F81110E941303EC2FF0E0EE0FFF1F04
:10076000EB5FFE4FA591B4918FB7F894EC91111106
:1007700008C0D095DE23DC938FBFDF91CF911F910E
:100780000895DE2BF8CFFC01918D228D892F90E00A
:10079000805C9F4F821B91098F7399270895FC01FC
:1007A000918D828D981731F0828DE80FF11D858D26
:1007B00090E008958FEF9FEF0895FC01918D828D59
:1007C000981761F0A28DAE0FBF2FB11D5D968C9171
:1007D000928D9F5F9F73928F90E008958FEF9FEFB0
:1007E0000895FC01538D448D252F30E0842F90E037
:1007F000821B930B541710F0CF960895019708951C
:100800008DE495E0892B49F080E090E0892B29F078
:100810000E944D0581110E94000080E090E0892B2C
:1008200049F080E090E0892B29F00E9400008111BE
:100830000C9400000895FC01A48DA80FB92FB11DE0
:10084000A35ABF4F2C91848D90E001968F73992706
:10085000848FA689B7892C93A089B1898C918064F3
:100860008C93938D848D981306C00288F389E02DB4
:1008700080818F7D80830895CF93DF93EC01888DF5
:100880008823B9F0AA89BB89E889F9898C9185FD0B
:1008900003C0808186FD0DC00FB607FCF7CF8C9199
:1008A00085FFF2CF808185FFEDCFCE010E941B0432
:1008B000E9CFDF91CF910895EF92FF920F931F93AD
:1008C000CF93DF93EC0181E0888F9B8D8C8D981303
:1008D00016C0E889F989808185FF11C0EE89FF89FA
:1008E0006083E889F98980818064808381E090E079
:1008F000DF91CF911F910F91FF90EF900895F62E09
:100900000B8D10E00F5F1F4F0F731127E02E8C8DA2
:100910008E110CC00FB607FCFACFE889F9898081E7
:1009200085FFF5CFCE010E941B04F1CFEB8DEC0FBC
:10093000FD2FF11DE35AFF4FF0820B8FEA89FB89EF
:1009400080818062D2CFCF92DF92EF92FF921F938D
:10095000CF93DF93EC016A017B01122F60E970ED08
:1009600083E090E0A70196010E944C0721503109D5
:10097000410951095695479537952795E889F98991
:1009800082E08083211580E1380798F0E889F989B1
:10099000108268E478EE81E090E0A70196010E9461
:1009A0004C07215031094109510956954795379512
:1009B0002795EC85FD853083EE85FF852083188E95
:1009C000EC89FD891083EA89FB89808188698083AD
:1009D000EA89FB8980818F7D8083DF91CF911F9190
:1009E000FF90EF90DF90CF9008951F920F920FB677
:1009F0000F9211242F938F939F93EF93FF93E09186
:100A0000A701F091A8018081E091AD01F091AE01C4
:100A100082FD1BC090818091B0018F5F8F73209108
:100A2000B101821741F0E091B001F0E0E956FE4FCC
:100A3000958F8093B001FF91EF919F918F912F91AE
:100A40000F900FBE0F901F9018958081F4CF1F92CA
:100A50000F920FB60F9211242F933F934F935F93F2
:100A60006F937F938F939F93AF93BF93EF93FF9376
:100A700087E991E00E941B04FF91EF91BF91AF9134
:100A80009F918F917F916F915F914F913F912F91A6
:100A90000F900FBE0F901F90189587E991E00E946C
:100AA000C30321E0892B09F420E0822F0895E7E9B0
:100AB000F1E01382128288EE93E0A0E0B0E084833C
:100AC0009583A683B78381E791E09183808385EC4A
:100AD00090E09587848784EC90E09787868780EC08
:100AE00090E0918B808B81EC90E0938B828B82ECF9
:100AF00090E0958B848B86EC90E0978B868B118EA3
:100B0000128E138E148E0895AF92BF92CF92DF9201
:100B1000EF92FF920F931F93CF93DF936C017B01B2
:100B20008B01040F151FEB015E01AE18BF08C01743
:100B3000D10759F06991D601ED91FC910190F081B6
:100B4000E02DC6010995892B79F7C501DF91CF9179
:100B50001F910F91FF90EF90DF90CF90BF90AF90DB
:100B60000895FB0101900020E9F73197AF01461B82
:100B7000570BDC01ED91FC910280F381E02D09948B
:100B8000DB0114964D915C9115976D917C91DC0180
:100B9000ED91FC910280F381E02D09946FE771E003
:100BA0000C94B1050F931F93CF93DF93EC010E9438
:100BB000C0058C01CE010E94CE05800F911FDF91F0
:100BC000CF911F910F9108950F931F93CF93DF93B0
:100BD0008C01D0E0C0E06115710519F00E94B105EB
:100BE000EC01C8010E94CE058C0F9D1FDF91CF91B3
:100BF0001F910F910895FC01808191810C942F0821
:100C0000CF93DF93EC0188819981009711F00E94C6
:100C10002F08198218821D821C821B821A82DF9182
:100C2000CF9108950F931F93CF93DF93EC018B0126
:100C30006F5F7F4F888199810E94B808009751F0BB
:100C4000998388831B830A8381E0DF91CF911F9171
:100C50000F91089580E0F9CFCF93DF93EC01888165
:100C60009981892B49F08A819B818617970720F00B
:100C700081E0DF91CF910895CE010E941206882372
:100C8000C1F38C819D81892B99F7E881F9811082CC
:100C9000EFCFEF92FF920F931F93CF93DF93EC016F
:100CA0007B018A01BA010E942C0681110BC0CE0182
:100CB0000E940006CE01DF91CF911F910F91FF900E
:100CC000EF9008951D830C83B701888199810E945C
:100CD0007E09F0CFFC0111821082138212821582EC
:100CE00014826115710551F0FB0101900020E9F7B4
:100CF0003197AF01461B570B0C9449060895FB0131
:100D000001900020E9F73197AF01461B570B0C9477
:100D100049060F931F93CF93DF93CDB7DEB762974A
:100D20000FB6F894DEBF0FBECDBF8C01CB01F8012A
:100D300011821082138212821582148250E0BE0149
:100D40006F5F7F4F0E948509BE016F5F7F4FC801B3
:100D50000E947F0662960FB6F894DEBF0FBECDBF2D
:100D6000DF91CF911F910F9108950F931F93CF9310
:100D7000DF93CDB7DEB7A2970FB6F894DEBF0FBEF4
:100D8000CDBF8C01CB01BA01F80111821082138210
:100D900012821582148230E0AE014F5F5F4F0E94D5
:100DA0009B09BE016F5F7F4FC8010E947F06A2961C
:100DB0000FB6F894DEBF0FBECDBFDF91CF911F916C
:100DC0000F910895EF92FF920F931F93CF93DF93AC
:100DD0006115710541F480E0DF91CF911F910F9172
:100DE000FF90EF90089541155105B1F07B01EC01A2
:100DF0000C811D81040F151FB8010E942C06882349
:100E000051F3288139818C819D81B701820F931F15
:100E10000E947E091D830C8381E0DECFCF93DF9398
:100E2000EC01FB0144815581608171810E94E206E1
:100E3000811103C0CE010E940006CE01DF91CF9147
:100E40000895CF93DF93EC016115710539F4CE015C
:100E50000E940006CE01DF91CF910895FB01019021
:100E60000020E9F73197AF01461B570B0E94E206BD
:100E7000882369F3EFCF08950E94B6020E943B07D2
:100E80000E94DF00C0E0D4E00E94EC002097E1F374
:100E90000E940004F9CF0895A1E21A2EAA1BBB1BE1
:100EA000FD010DC0AA1FBB1FEE1FFF1FA217B30736
:100EB000E407F50720F0A21BB30BE40BF50B661F4C
:100EC000771F881F991F1A9469F760957095809510
:100ED00090959B01AC01BD01CF010895052E97FBB4
:100EE0001EF400940E94850757FD07D00E944C070E
:100EF00007FC03D04EF40C9485075095409530952F
:100F000021953F4F4F4F5F4F089590958095709575
:100F100061957F4F8F4F9F4F0895EE0FFF1F0590F4
:100F2000F491E02D09940F931F93CF93DF938230B8
:100F3000910510F482E090E0E0913602F0913702E2
:100F400030E020E0B0E0A0E0309799F421153105C1
:100F500009F44AC0281B390B24303105D8F58A81A1
:100F60009B816115710589F1FB0193838283FE01E9
:100F700011C0408151810281138148175907E0F067
:100F80004817590799F4109761F012960C9312972D
:100F900013961C933296CF01DF91CF911F910F9141
:100FA00008950093360210933702F4CF21153105CE
:100FB00051F04217530738F0A901DB019A01BD0136
:100FC000DF01F801C1CFEF01F9CF90933702809391
:100FD0003602CDCFFE01E20FF31F81939193225091
:100FE000310939832883D7CF2091340230913502DB
:100FF000232B41F4209102013091030130933502FB
:101000002093340220910001309101012115310516
:1010100041F42DB73EB74091040150910501241BC6
:10102000350BE0913402F0913502E217F307A0F49A
:101030002E1B3F0B2817390778F0AC014E5F5F4F2E
:101040002417350748F04E0F5F1F50933502409329
:101050003402819391939FCFF0E0E0E09CCFCF9357
:10106000DF930097E9F0FC01329713821282A0917E
:101070003602B0913702ED0130E020E01097A1F484
:1010800020813181820F931F2091340230913502EB
:101090002817390709F061C0F0933502E093340254
:1010A000DF91CF910895EA01CE17DF07E8F54A8175
:1010B0005B819E0141155105B1F7E901FB83EA838C
:1010C00049915991C40FD51FEC17FD0761F4808138
:1010D00091810296840F951FE9019983888382810B
:1010E00093819B838A83F0E0E0E012968D919C913E
:1010F00013970097B9F52D913C911197CD01029668
:10110000820F931F2091340230913502281739073E
:1011100039F6309751F51092370210923602B0939B
:101120003502A0933402BCCFD383C2834081518166
:10113000840F951FC817D90761F44E5F5F4F8881F0
:101140009981480F591F518340838A819B819383E2
:1011500082832115310509F0B0CFF0933702E09377
:1011600036029ECFFD01DC01C0CF13821282D7CFA1
:10117000B0E0A0E0EEEBF8E00C94030A8C010097DD
:1011800051F4CB010E9493078C01C801CDB7DEB7A3
:10119000E0E10C941F0AFC01E60FF71F9C012250AE
:1011A0003109E217F30708F49DC0D901CD91DC9114
:1011B0001197C617D70798F0C530D10530F3CE0187
:1011C00004978617970708F3C61BD70B2297C1937E
:1011D000D1936D937C93CF010E942F08D6CF5B01F2
:1011E000AC1ABD0A4C018C0E9D1EA0913602B09126
:1011F0003702512C412CF12CE12C109731F58091C4
:101200003402909135028815990509F05CC04616A4
:10121000570608F058C08091000190910101009795
:1012200041F48DB79EB74091040150910501841B94
:10123000950BE817F90708F055C0F0933502E093D5
:101240003402F90171836083A0CF8D919C91119735
:1012500012966C90129713967C901397A815B90567
:1012600059F56C0142E0C40ED11CCA14DB0420F114
:10127000AC014A195B09DA011296159780F0628277
:10128000738251834083D9016D937C93E114F104FF
:1012900071F0D7011396FC93EE93129776CF2296B6
:1012A0008C0F9D1FF90191838083F301EFCFF093A1
:1012B0003702E093360269CF4816590608F42C012C
:1012C0007D01D3019ACFCB010E9493077C01009747
:1012D00049F0AE01B8010E947509C8010E942F08AB
:1012E000870153CF10E000E050CFFB01DC0102C0CA
:1012F00001900D9241505040D8F70895FB01DC0158
:1013000001900D920020E1F708954532510520F437
:10131000423010F00C949009FB011082CB0108952B
:10132000BB274A3031F4992322F4BDE29095819590
:101330009F4F0C94D8092532310520F4223010F04B
:101340000C94A609FA011082CA010895BB272A301D
:1013500051F4992342F4BDE2909580957095619582
:101360007F4F8F4F9F4F0C94B609BB27FA01A62FD2
:101370006217710581059105330B30FB66F0AA27D2
:10138000660F771F881F991FAA1FA21710F0A21BB4
:1013900063953850A9F7A05DAA3308F0A95DA19321
:1013A00036F7B111B1931082CA010C94F109BB2731
:1013B000FB015527AA27880F991FAA1FA41710F011
:1013C000A41B83955051B9F7A05DAA3308F0A95D1D
:1013D000A193009779F7B111B1931192CB010C94BD
:1013E000F109DC01FC01672F71917723E1F7329756
:1013F00004C07C916D9370836291AE17BF07C8F3F0
:1014000008952F923F924F925F926F927F928F92A8
:101410009F92AF92BF92CF92DF92EF92FF920F9383
:101420001F93CF93DF93CDB7DEB7CA1BDB0B0FB68D
:10143000F894DEBF0FBECDBF09942A88398848884A
:101440005F846E847D848C849B84AA84B984C884E0
:10145000DF80EE80FD800C811B81AA81B981CE0FD7
:10146000D11D0FB6F894DEBF0FBECDBFED010895BC
:04147000F894FFCF1E
:1014740000003802800011000F000E00017869613D
:101484006F6C61626120494653204C6F5261206D3C
:10149400696E6920646576656C6F706D656E742025
:1014A40062726F61642074657374696E670050437F
:1014B400302F41444330203D20005043312F4144DC
:1014C4004331203D20005043332F41444333203DDA
:1014D4002000564343203D2000206D5600000000AC
:1014E400005C048405F1033C04C303DD03CF030D56
:0214F4000A00EC
:00000001FF
